:020000040000fa
:080000000001040000000000f3
:020000040000fa
:100200000f8321000e7f22000e01880000000000f5
:100210000c000700a0a92200110020001100070017
:10022000000020000000e000020032000000020098
:100230000000000002ad0200000000000040da00f3
:100240000000fe004440a900c0a123000000e0001f
:100250000300320000002000a00188004440a800f4
:100260000000060091018800800078000000eb008b
:1002700015003700e280400032a0b4009101ba00be
:10028000e280400032a0b4009102ba00e280400057
:1002900032a0b4000002eb00472bde00f507b200ed
:1002a000602ce10004003a000059eb008301e900f2
:1002b000fdff3e00040037006128e100010032002c
:1002c0000082eb00040007001101ba000200e00008
:1002d000e8ff3a00000006003159ba008301e90046
:1002e0000c0032002159ba008301e90008003200f5
:1002f0000400e00003003a00e280400032a0b400b5
:10030000f5ff370011d9ba008301e900faff3a007e
:100310008100e800e180400032a0b4000000060047
:100320006022b800060220000000d0008180d200c8
:100330000482d2008582d2000000a0000202520096
:1003400083825a00030031000202420083824a0085
:100350000000a1000603e900f3ff3a0000000600d8
:0c036000efff07000400be0000000600d4
:020000040000fa
:0200000401f009
:040000000683000073
:020000040000fa
:0200000401f009
:040004002080000058
:020000040000fa
:0200000401f009
:04000800a3870000ca
:020000040000fa
:0200000401f009
:04001400ffff0000ea
:020000040000fa
:10000800f04001009a400100a0400100a640010014
:10001800ac400100f0400100f0400100f040010058
:10002800f0400100f0400100f0400100a83b010051
:10003800f0400100f0400100f0400100f0400100f4
:10004800f040010010660100cc650100f04001009d
:10005800f0400100f0400100f0400100f0400100d4
:10006800f0400100f0400100f0400100f0400100c4
:10007800f0400100f0400100f0400100f0400100b4
:10008800ac64010076640100f04001006861010081
:10009800f0400100f0400100f0400100f040010094
:1000a800f0400100f0400100f0400100f040010084
:1000b800f0400100f04001002a6a0100f040010010
:1000c800a86b0100f0400100d4400100f04001009d
:1000d800f0400100f0400100f0400100f040010054
:1000e800f0400100f0400100f0400100f040010044
:0800f800f0400100f04001009e
:020000040000fa
:10010800f04001009a400100a0400100a640010013
:10011800ac400100f0400100f0400100f040010057
:10012800f0400100f0400100f0400100a83b010050
:10013800f0400100f0400100f0400100f0400100f3
:10014800f040010010660100cc650100f04001009c
:10015800f0400100f0400100f0400100f0400100d3
:10016800f0400100f0400100f0400100f0400100c3
:10017800f0400100f0400100f0400100f0400100b3
:10018800ac64010076640100f04001006861010080
:10019800f0400100f0400100f0400100f040010093
:1001a800f0400100f0400100f0400100f040010083
:1001b800f0400100f04001002a6a0100f04001000f
:1001c800a86b0100f0400100d4400100f04001009c
:1001d800f0400100f0400100f0400100f040010053
:1001e800f0400100f0400100f0400100f040010043
:0801f800f0400100f04001009d
:020000040000fa
:10036c003030000030000000203000003100000070
:10037c00203000003200000020300000330000006c
:10038c002030000034000000203000003500000058
:10039c002030000036000000203000003700000044
:1003ac002030000038000000203000003900000030
:1003bc00203100003000000020310000310000002e
:1003cc00203100003200000020310000330000001a
:1003dc002031000034000000203100003500000006
:1003ec0020310000360000002031000037000000f2
:1003fc0020310000380000002031000039000000de
:10040c0020320000300000002032000031000000db
:10041c0020320000320000002032000033000000c7
:10042c0020320000340000002032000035000000b3
:10043c00203200003600000020320000370000009f
:10044c00203200003800000020320000390000008b
:10045c002033000030000000203300003100000089
:10046c002033000032000000415600004f00000015
:10047c00425600004f000000435600004f000000a1
:10048c00445600004f0000004143000031000000c2
:10049c0041430000320000004143000033000000e3
:1004ac0041430000340000004243000031000000d2
:1004bc0042430000320000004243000033000000c1
:1004cc0042430000340000004343000031000000b0
:1004dc00434300003200000043430000330000009f
:1004ec00434300003400000044430000310000008e
:1004fc00444300003200000044430000330000007d
:10050c004443000034000000415800004f0000003c
:10051c004158000031000000425800004f0000001c
:10052c004258000031000000435800004f0000000a
:10053c004358000031000000445800004f000000f8
:10054c004458000031000000415f00004d000000e5
:10055c00424d000031000000424d0000320000000e
:10056c00434d000031000000434d000032000000fc
:10057c00444d000031000000444d000032000000ea
:10058c00414c000044000000424c000044000000bc
:10059c00434c000044000000444c000044000000a8
:1005ac004150000043000000425000004300000096
:1005bc004350000043000000445000004300000082
:1005cc00464c00003a300000302000002020000093
:1005dc00202000002020000020200000202000000f
:1005ec000055000053450000523a000056650000cb
:1005fc0072730000696f00006e2000002020000064
:10060c002000000055530000455200003a42000003
:10061c006f6100007264000049640000202000003b
:10062c00202000000055000053450000523a000005
:10063c005061000073730000776100007264000069
:10064c0020200000200000005553000045520000ff
:10065c003a55000073650000724c0000616d00009b
:10066c0070310000202000000055000053450000b0
:10067c00523a000055730000657200004c61000096
:10068c006d70000032200000200000005553000067
:10069c00455200003a530000657200006961000089
:1006ac006c4e00006d200000202000000055000062
:1006bc0053450000523a00004e6f0000726d00006e
:1006cc00616c0000204400007370000020000000ea
:1006dc0055530000455200003a4400007269000076
:1006ec00766500004d650000746800006f640000c2
:1006fc000055000053450000523a000046680000c7
:10070c006d200000527500006e20000020200000bb
:10071c002000000055530000455200003a530000e1
:10072c00756200004d6500006e750000204f0000e2
:10073c006e2000000055000053450000523a0000a6
:10074c00456e0000676900006e6500006572000070
:10075c00204e00006d000000555300004552000073
:10076c003a5400007420000055730000652000000e
:10077c00546900006d6500000055000053450000f1
:10078c00523a0000496e00006974000020440000d9
:10079c00617400006120000020000000555300002f
:1007ac00455200003a470000726f0000757000005f
:1007bc00204e00006d20000020200000005500009d
:1007cc0053450000523a00004c6f0000636100007a
:1007dc006c2000004e6d0000202000002000000066
:1007ec0055530000455200003a4900006e76000057
:1007fc00204900006e42000064200000547000008c
:10080c000055000053450000523a000043610000bf
:10081c006c6c0000286300002d6600002d66000043
:10082c002900000055530000455200003a680000b2
:10083c00682d00006d6d00002d730000732000000a
:10084c00202000000055000053450000523a0000e3
:10085c00797900002d6d00006d2d0000646400009e
:10086c0020200000200000005553000045520000dd
:10087c003a4500007272000053740000436e000091
:10088c00742000002020000000550000534500009b
:10089c00523a0000436f00006d700000616e000062
:1008ac00792000002020000020000000555300009b
:1008bc00455200003a4f000075740000446100007e
:1008cc00746500002020000020200000005500006e
:1008dc0053450000523a0000557300006572000049
:1008ec004c6100006d7000003320000020000000ff
:1008fc0055530000455200003a5500007365000046
:10090c00724c0000616d000070340000202000006b
:10091c000055000053450000523a0000432d0000e2
:10092c004b2d0000482d00004f2d0000422d0000e3
:10093c005200000055530000455200003a5500008b
:10094c00736500007234000020200000202000009d
:10095c00202000000055000053450000523a0000d2
:10096c005573000065720000352000002020000047
:10097c0020200000200000005553000045520000cc
:10098c003a5500007365000072360000202000000c
:10099c0020200000202000000055000053450000de
:1009ac00523a0000462d000045720000726f0000a4
:1009bc007228000030300000290000005553000060
:1009cc00455200003a530000656e0000506f000065
:1009dc007369000028300000302900000055000029
:1009ec0053450000523a0000537900007374000024
:1009fc00656d0000204d00006f6400006500000074
:100a0c0055530000455200003a200000537400007a
:100a1c006f70000020500000756c000073650000c2
:100a2c0000440000535000003a4600006c6f000078
:100a3c006f720000303100002020000020200000e8
:100a4c002000000044530000503a0000466c0000a7
:100a5c006f6f000072300000322000002020000078
:100a6c002020000000440000535000003a460000d3
:100a7c006c6f00006f72000030330000202000000b
:100a8c00202000002000000044530000503a0000d9
:100a9c00466c00006f6f00007230000034200000c4
:100aac0020200000202000000044000053500000d3
:100abc003a4600006c6f00006f7200003035000089
:100acc0020200000202000002000000044530000e3
:100adc00503a0000466c00006f6f0000723000004e
:100aec0036200000202000002020000000440000e0
:100afc00535000003a4600006c6f00006f7200000b
:100b0c0030370000202000002020000020000000d2
:100b1c0044530000503a0000466c00006f6f000018
:100b2c00723000003820000020200000202000003f
:100b3c0000440000535000003a4600006c6f000067
:100b4c006f720000303900002020000020200000cf
:100b5c002000000044530000503a0000466c000096
:100b6c006f6f000072310000302000002020000068
:100b7c002020000000440000535000003a460000c2
:100b8c006c6f00006f7200003131000020200000fb
:100b9c00202000002000000044530000503a0000c8
:100bac00466c00006f6f00007231000032200000b4
:100bbc0020200000202000000044000053500000c2
:100bcc003a4600006c6f00006f7200003133000079
:100bdc0020200000202000002000000044530000d2
:100bec00503a0000466c00006f6f0000723100003c
:100bfc0034200000202000002020000000440000d1
:100c0c00535000003a4600006c6f00006f720000f9
:100c1c0031350000202000002020000020000000c2
:100c2c0044530000503a0000466c00006f6f000007
:100c3c00723100003620000020200000202000002f
:100c4c0000440000535000003a4600006c6f000056
:100c5c006f720000313700002020000020200000bf
:100c6c002000000044530000503a0000466c000085
:100c7c006f6f00007231000038200000202000004f
:100c8c002020000000440000535000003a460000b1
:100c9c006c6f00006f7200003139000020200000e2
:100cac00202000002000000044530000503a0000b7
:100cbc00466c00006f6f00007232000030200000a4
:100ccc0020200000202000000044000053500000b1
:100cdc003a4600006c6f00006f7200003231000069
:100cec0020200000202000002000000044530000c1
:100cfc00503a0000466c00006f6f0000723200002a
:100d0c0032200000202000002020000000440000c1
:100d1c00535000003a4600006c6f00006f720000e8
:100d2c0032330000202000002020000020000000b2
:100d3c0044530000503a0000466c00006f6f0000f6
:100d4c00723200003420000020200000202000001f
:100d5c0000440000535000003a4600006c6f000045
:100d6c006f720000323500002020000020200000af
:100d7c002000000044530000503a0000466c000074
:100d8c006f6f00007232000036200000202000003f
:100d9c002020000000440000535000003a460000a0
:100dac006c6f00006f7200003237000020200000d2
:100dbc00202000002000000044530000503a0000a6
:100dcc00466c00006f6f000072320000382000008b
:100ddc0020200000202000000044000053500000a0
:100dec003a4600006c6f00006f7200003239000050
:100dfc0020200000202000002000000044530000b0
:100e0c00503a0000466c00006f6f00007233000017
:100e1c0030200000202000002020000000440000b2
:100e2c00535000003a4600006c6f00006f720000d7
:100e3c0033310000202000002020000020000000a2
:100e4c0044530000503a0000466c00006f6f0000e5
:100e5c00723300003220000020200000202000000f
:100e6c00004600004c5200003a5400006f70000025
:100e7c00466c0000722000002020000020200000a2
:100e8c0020000000464c0000523a00005072000056
:100e9c006b4600006c720000202000002020000037
:100eac0020200000004600004c5200003a4e00008a
:100ebc006f55000073650000204700006f20000094
:100ecc00466c000072000000464c0000523a0000d4
:100edc004669000072650000536100006665000001
:100eec00204600006c720000004600004c520000ce
:100efc003a320000274600005f5300006166000094
:100f0c0065200000466c000072000000464c00009a
:100f1c00523a0000576100007465000072530000e3
:100f2c0061660000654600006c720000004600001f
:100f3c004c5200003a5300007461000072740000bf
:100f4c00204600006c7200002020000020000000f1
:100f5c00464c0000523a00004f6e000065530000f2
:100f6c00746f000070200000466c000072200000be
:100f7c00004600004c5200003a4b0000696400002f
:100f8c00732000004b65000079200000436e0000c8
:100f9c0074000000464c0000523a00005836000025
:100fac002053000061660000652000002046000010
:100fbc006c720000004600004c5200003a580000d1
:100fcc003520000053610000666500002020000001
:100fdc00466c000072000000464c0000523a0000c3
:100fec004e63000032310000466c0000722000009d
:100ffc002020000020200000004600004c52000081
:10100c003a4e000063320000304600006c72000063
:10101c00202000002020000020000000464c000092
:10102c00523a00004e63000031390000466c00005b
:10103c00722000002020000020200000004600004c
:10104c004c5200003a4e000063310000384600005c
:10105c006c72000020200000202000002000000006
:10106c00464c0000523a00004e630000313700003d
:10107c00466c0000722000002020000020200000a0
:10108c00004600004c5200003a4e00006331000054
:10109c00364600006c72000020200000202000006a
:1010ac0020000000464c0000523a00004e63000045
:1010bc0031350000466c000072200000202000003a
:1010cc0020200000004600004c5200003a4e000068
:1010dc0063310000344600006c72000020200000d8
:1010ec002020000020000000464c0000523a000076
:1010fc004e63000031330000466c0000722000008b
:10110c002020000020200000004600004c5200006f
:10111c003a4e000063310000324600006c72000051
:10112c00202000002020000020000000464c000081
:10113c00523a00004e63000031310000466c000052
:10114c00722000002020000020200000004600003b
:10115c004c5200003a4e0000633100003046000053
:10116c006c720000202000002020000020000000f5
:10117c00464c0000523a00004e630000303900002b
:10118c00466c00007220000020200000202000008f
:10119c00004600004c5200003a4e00006330000044
:1011ac00384600006c720000202000002020000057
:1011bc0020000000464c0000523a00004e63000034
:1011cc0030370000466c0000722000002020000028
:1011dc0020200000004600004c5200003a4e000057
:1011ec0063300000364600006c72000020200000c6
:1011fc002020000020000000464c0000523a000065
:10120c004e63000030350000466c00007220000078
:10121c002020000020200000004600004c5200005e
:10122c003a4e000063300000344600006c7200003f
:10123c00202000002020000020000000464c000070
:10124c00523a00004e63000030330000466c000040
:10125c00722000002020000020200000004600002a
:10126c004c5200003a4e0000633000003246000041
:10127c006c720000202000002020000020000000e4
:10128c00464c0000523a00004e6300003031000022
:10129c00466c00007220000020200000202000007e
:1012ac00005400004d5200003a4f00007020000026
:1012bc00576100006974000020540000696d000043
:1012cc0065000000544d0000523a00004f700000c1
:1012dc00205400006f740000616c0000205400006a
:1012ec006d200000005400004d5200003a4e0000ea
:1012fc006f20000055730000652000005469000049
:10130c006d65000020000000544d0000523a0000b2
:10131c004e65000078740000466c000072200000de
:10132c00546900006d650000005400004d5200002f
:10133c003a4c0000754c0000644f000066660000db
:10134c0020540000696d000065000000544d000041
:10135c00523a0000466100006e2000004f6600000b
:10136c0066200000546900006d6500000054000008
:10137c004d5200003a4c000069740000204f0000f0
:10138c006666000020540000696d000065000000d6
:10139c00544d0000523a00004f700000436c0000a6
:1013ac005761000069740000546900006d6500000d
:1013bc00005400004d5200003a5000006f770000be
:1013cc0065720000527500006e540000696d0000db
:1013dc0065000000544d0000523a000044690000c2
:1013ec007220000053650000742000005469000056
:1013fc006d650000005400004d5200003a5600008c
:10140c006f69000063650000204f00006e540000ff
:10141c00696d000065000000544d0000523a000058
:10142c00427200006b2000004d6700007420000029
:10143c00546900006d650000005400004d5200001e
:10144c003a4f000070200000486f00006c640000f0
:10145c0020540000696d000065000000544d000030
:10146c00523a000050340000202000004f6e000063
:10147c0020200000546900006d650000005400003d
:10148c004d5200003a5500002f440000204f000040
:10149c006e20000020540000696d00006500000003
:1014ac00544d0000523a0000426b00003220000004
:1014bc004f6e000020200000546900006d65000094
:1014cc00005400004d5200003a4200006b31000005
:1014dc00204f00006e20000020540000696d0000b9
:1014ec0065000000544d0000523a00005275000097
:1014fc006e2000004f6e0000202000005469000098
:10150c006d650000005400004d5200003a5200007e
:10151c00756e0000204f000066660000205400002d
:10152c00696d000065000000544d0000523a000047
:10153c00426b0000312000004f6600006620000066
:10154c00546900006d650000005400004d5200000d
:10155c003a4200006b320000204f0000666600002b
:10156c0020540000696d000065000000544d00001f
:10157c00523a0000552f0000442000004f66000036
:10158c0066200000546900006d65000000540000e6
:10159c004d5200003a50000034200000204f000053
:1015ac006666000020540000696d000065000000b4
:1015bc00544d0000523a0000536f00006c200000a4
:1015cc004f6e000020200000546900006d65000083
:1015dc00005400004d5200003a4400006f6f0000b0
:1015ec00722000005374000020540000696d00004c
:1015fc0065000000544d0000523a00005374000086
:10160c006f70000039200000202000005469000099
:10161c006d650000005400004d5200003a5300006c
:10162c00746f000070310000302000002054000066
:10163c00696d000065000000544d0000523a000036
:10164c00537400006f700000313100002020000046
:10165c00546900006d650000005400004d520000fc
:10166c003a530000746f000070310000322000000b
:10167c0020540000696d000065000000544d00000e
:10168c00523a0000537400006f70000031330000b8
:10169c0020200000546900006d650000005400001b
:1016ac004d5200003a530000746f0000703100007e
:1016bc003420000020540000696d0000650000001b
:1016cc00544d0000523a0000537400006f7000003b
:1016dc003135000020200000546900006d650000c9
:1016ec00004f00004e4f000046460000313a00000b
:1016fc00466c00006f6f000072300000312000005b
:10170c00200000004f4e00004f4600004631000004
:10171c003a4600006c6f00006f720000303200001f
:10172c0020200000004f00004e4f000046460000f5
:10173c00313a0000466c00006f6f00007230000000
:10174c0033200000200000004f4e00004f460000e8
:10175c00463100003a4600006c6f00006f720000ca
:10176c003034000020200000004f00004e4f0000dd
:10177c0046460000313a0000466c00006f6f0000d6
:10178c007230000035200000200000004f4e000099
:10179c004f460000463100003a4600006c6f0000d6
:1017ac006f7200003036000020200000004f000057
:1017bc004e4f000046460000313a0000466c0000d7
:1017cc006f6f000072300000372000002000000016
:1017dc004f4e00004f460000463100003a460000d4
:1017ec006c6f00006f720000303800002020000089
:1017fc00004f00004e4f000046460000313a0000fa
:10180c00466c00006f6f0000723000003920000041
:10181c00200000004f4e00004f46000046310000f3
:10182c003a4600006c6f00006f720000313000000f
:10183c0020200000004f00004e4f000046460000e4
:10184c00313a0000466c00006f6f000072310000ee
:10185c0031200000200000004f4e00004f460000d9
:10186c00463100003a4600006c6f00006f720000b9
:10187c003132000020200000004f00004e4f0000cd
:10188c0046460000313a0000466c00006f6f0000c5
:10189c007231000033200000200000004f4e000089
:1018ac004f460000463100003a4600006c6f0000c5
:1018bc006f7200003134000020200000004f000047
:1018cc004e4f000046460000313a0000466c0000c6
:1018dc006f6f000072310000352000002000000006
:1018ec004f4e00004f460000463100003a460000c3
:1018fc006c6f00006f720000313600002020000079
:10190c00004f00004e4f000046460000313a0000e8
:10191c00466c00006f6f0000723100003720000031
:10192c00200000004f4e00004f46000046310000e2
:10193c003a4600006c6f00006f72000031380000f6
:10194c0020200000004f00004e4f000046460000d3
:10195c00313a0000466c00006f6f000072310000dd
:10196c0039200000200000004f4e00004f460000c0
:10197c00463100003a4600006c6f00006f720000a8
:10198c003230000020200000004f00004e4f0000bd
:10199c0046460000313a0000466c00006f6f0000b4
:1019ac007232000031200000200000004f4e000079
:1019bc004f460000463100003a4600006c6f0000b4
:1019cc006f7200003232000020200000004f000037
:1019dc004e4f000046460000313a0000466c0000b5
:1019ec006f6f0000723200003320000020000000f6
:1019fc004f4e00004f460000463100003a460000b2
:101a0c006c6f00006f720000323400002020000068
:101a1c00004f00004e4f000046460000313a0000d7
:101a2c00466c00006f6f0000723200003520000021
:101a3c00200000004f4e00004f46000046310000d1
:101a4c003a4600006c6f00006f72000032360000e6
:101a5c0020200000004f00004e4f000046460000c2
:101a6c00313a0000466c00006f6f000072320000cb
:101a7c0037200000200000004f4e00004f460000b1
:101a8c00463100003a4600006c6f00006f72000097
:101a9c003238000020200000004f00004e4f0000a4
:101aac0046460000313a0000466c00006f6f0000a3
:101abc007232000039200000200000004f4e000060
:101acc004f460000463100003a4600006c6f0000a3
:101adc006f7200003330000020200000004f000027
:101aec004e4f000046460000313a0000466c0000a4
:101afc006f6f0000723300003120000020000000e6
:101b0c004f4e00004f460000463100003a460000a0
:101b1c006c6f00006f720000333200002020000058
:101b2c00004f00004e4f000046460000323a0000c5
:101b3c00464800004d200000436800006b20000068
:101b4c00200000004f4e00004f46000046320000bf
:101b5c003a440000724a00006d70000043680000b7
:101b6c006b200000004f00004e4f00004646000066
:101b7c00323a0000456e0000636f0000646500009f
:101b8c0072500000680000004f4e00004f460000ed
:101b9c00463200003a5700006172000064500000a9
:101bac00726900006f720000004f00004e4f000081
:101bbc0046460000323a00004e6f00006e530000a3
:101bcc00746f000070200000200000004f4e0000d9
:101bdc004f460000463200003a4f0000706500008e
:101bec006e5400006f740000616c0000004f000028
:101bfc004e4f000046460000323a0000576100008c
:101c0c0069740000546f0000746100006c000000e7
:101c1c004f4e00004f460000463200003a43000091
:101c2c006c6f0000735400006f740000616c000056
:101c3c00004f00004e4f000046460000323a0000b4
:101c4c00435f000044720000312000004368000034
:101c5c006b0000004f4e00004f4600004632000063
:101c6c003a4300005f440000723200002043000041
:101c7c00686b0000004f00004e4f0000464600000d
:101c8c00323a0000485f000044720000312000002e
:101c9c00436800006b0000004f4e00004f460000f0
:101cac00463200003a4800005f44000072320000e7
:101cbc0020430000686b0000004f00004e4f0000f6
:101ccc0046460000323a0000535f000053660000a5
:101cdc0074200000436800006b0000004f4e0000b1
:101cec004f460000463200003a4d00006774000079
:101cfc004d6f00006e430000686b0000004f000049
:101d0c004e4f000046460000323a0000456e00007f
:101d1c00636f000064200000436800006b0000004b
:101d2c004f4e00004f460000463200003a52000071
:101d3c00656c00006576000065430000686b000070
:101d4c00004f00004e4f000046460000323a0000a3
:101d5c004f6900006c4c00006f700000655400006f
:101d6c00790000004f4e00004f4600004632000044
:101d7c003a31000020430000616c00006c4300000d
:101d8c00686b0000004f00004e4f000046460000fc
:101d9c00323a00004d6100006e5300007573000074
:101dac00436800006b0000004f4e00004f460000df
:101dbc00463200003a420000726b00004d6f00008a
:101dcc006e430000686b0000004f00004e4f000097
:101ddc0046460000323a00004b690000644b00009c
:101dec0065790000436c0000720000004f4e00004b
:101dfc004f460000463200003a4600005f430000a8
:101e0c00617200004b65000079200000004f00005b
:101e1c004e4f000046460000323a00005369000065
:101e2c006e6700006c6500004361000072000000ea
:101e3c004f4e00004f460000463200003a4f000063
:101e4c00704f000075740000536500007420000092
:101e5c00004f00004e4f000046460000323a000092
:101e6c00536600007455000073650000205200009a
:101e7c004c0000004f4e00004f4600004632000060
:101e8c003a4600006c6f00006f7200002053000097
:101e9c00656c0000004f00004e4f000046460000ed
:101eac00323a0000527500006e6e0000696e000040
:101ebc00674f0000700000004f4e00004f460000be
:101ecc00463200003a4e00006f74000020550000ae
:101edc007365000020200000004f00004e4f0000f2
:101eec0046460000323a00004e6f0000742000009d
:101efc005573000065200000200000004f4e0000cc
:101f0c004f460000463200003a4e00006f7400004d
:101f1c00205500007365000020200000004f0000d9
:101f2c004e4f000046460000323a0000436f00005e
:101f3c00707900005f4500006e63000064000000d3
:101f4c004f4e00004f460000463200003a5700004a
:101f5c006f7200006b2000004d6f00006465000084
:101f6c00004400004f4f0000522d0000533a000077
:101f7c00466c00006f6f00007230000031200000d2
:101f8c0020000000444f00004f5200002d53000071
:101f9c003a4600006c6f00006f7200003032000097
:101fac0020200000004400004f4f0000522d000084
:101fbc00533a0000466c00006f6f00007230000056
:101fcc003320000020000000444f00004f5200005e
:101fdc002d5300003a4600006c6f00006f72000039
:101fec003034000020200000004400004f4f00005f
:101ffc00522d0000533a0000466c00006f6f000039
:10200c00723000003520000020000000444f00001a
:10201c004f5200002d5300003a4600006c6f000038
:10202c006f720000303600002020000000440000d9
:10203c004f4f0000522d0000533a0000466c000038
:10204c006f6f00007230000037200000200000008d
:10205c00444f00004f5200002d5300003a46000040
:10206c006c6f00006f720000303800002020000000
:10207c00004400004f4f0000522d0000533a000066
:10208c00466c00006f6f00007230000039200000b9
:10209c0020000000444f00004f5200002d53000060
:1020ac003a4600006c6f00006f7200003130000087
:1020bc0020200000004400004f4f0000522d000073
:1020cc00533a0000466c00006f6f00007231000044
:1020dc003120000020000000444f00004f5200004f
:1020ec002d5300003a4600006c6f00006f72000028
:1020fc003132000020200000004400004f4f00004f
:10210c00522d0000533a0000466c00006f6f000027
:10211c00723100003320000020000000444f00000a
:10212c004f5200002d5300003a4600006c6f000027
:10213c006f720000313400002020000000440000c9
:10214c004f4f0000522d0000533a0000466c000027
:10215c006f6f00007231000035200000200000007d
:10216c00444f00004f5200002d5300003a4600002f
:10217c006c6f00006f7200003136000020200000f0
:10218c00004400004f4f0000522d0000533a000055
:10219c00466c00006f6f00007231000037200000a9
:1021ac0020000000444f00004f5200002d5300004f
:1021bc003a4600006c6f00006f720000313800006e
:1021cc0020200000004400004f4f0000522d000062
:1021dc00533a0000466c00006f6f00007231000033
:1021ec003920000020000000444f00004f52000036
:1021fc002d5300003a4600006c6f00006f72000017
:10220c003230000020200000004400004f4f00003e
:10221c00522d0000533a0000466c00006f6f000016
:10222c00723200003120000020000000444f0000fa
:10223c004f5200002d5300003a4600006c6f000016
:10224c006f720000323200002020000000440000b9
:10225c004f4f0000522d0000533a0000466c000016
:10226c006f6f00007232000033200000200000006d
:10227c00444f00004f5200002d5300003a4600001e
:10228c006c6f00006f7200003234000020200000e0
:10229c00004400004f4f0000522d0000533a000044
:1022ac00466c00006f6f0000723200003520000099
:1022bc0020000000444f00004f5200002d5300003e
:1022cc003a4600006c6f00006f720000323600005e
:1022dc0020200000004400004f4f0000522d000051
:1022ec00533a0000466c00006f6f00007232000021
:1022fc003720000020000000444f00004f52000027
:10230c002d5300003a4600006c6f00006f72000005
:10231c003238000020200000004400004f4f000025
:10232c00522d0000533a0000466c00006f6f000005
:10233c00723200003920000020000000444f0000e1
:10234c004f5200002d5300003a4600006c6f000005
:10235c006f720000333000002020000000440000a9
:10236c004f4f0000522d0000533a0000466c000005
:10237c006f6f00007233000031200000200000005d
:10238c00444f00004f5200002d5300003a4600000d
:10239c006c6f00006f7200003332000020200000d0
:1023ac00004900005f4f00003a4d0000616e0000d4
:1023bc005370000064200000205000006f72000079
:1023cc0074000000495f00004f3a000042610000b9
:1023dc00745300007064000020200000506f000057
:1023ec0072740000004900005f4f00003a44000086
:1023fc006563000053700000642000002050000052
:10240c006f72000074000000495f00004f3a00003a
:10241c00464800004d53000070640000202000006e
:10242c00506f000072740000004900005f4f000004
:10243c003a5300007064000033300000202000008c
:10244c00205000006f72000074000000495f000013
:10245c004f3a000053700000643400003520000037
:10246c0020200000506f0000727400000049000032
:10247c005f4f00003a5300007064000036300000db
:10248c0020200000205000006f720000740000003b
:10249c00495f00004f3a000053700000643900009f
:1024ac003020000020200000506f000072740000eb
:1024bc00004900005f4f00003a53000070640000b8
:1024cc003130000035200000205000006f720000f9
:1024dc0074000000495f00004f3a00005370000088
:1024ec00643100003230000020200000506f0000ea
:1024fc0072740000004900005f4f00003a53000066
:10250c0070640000313500003020000020500000c5
:10251c006f72000074000000495f00004f3a000029
:10252c00537000006431000038300000202000009f
:10253c00506f000072740000004900005f4f0000f3
:10254c003a5300007064000032310000302000006b
:10255c00205000006f72000074000000495f000002
:10256c004f3a0000457400006331000053700000c6
:10257c0064200000506f00007274000000490000dd
:10258c005f4f00003a4500007463000032530000b6
:10259c0070640000205000006f7200007400000096
:1025ac00495f00004f3a0000456c00006576000062
:1025bc00204d000061780000205300007064000082
:1025cc00004900005f4f00003a4c0000696d0000ac
:1025dc00742000004d610000782000005370000052
:1025ec0064000000495f00004f3a00004d6100009c
:1025fc007853000075530000643100002053000034
:10260c0070640000004900005f4f00003a4d00006c
:10261c006178000053750000536400003220000004
:10262c005370000064000000495f00004f3a000046
:10263c004d61000078580000305800003120000037
:10264c002053000070640000004900005f4f000040
:10265c003a410000757400006f4c0000616e000080
:10266c00646900006e67000020000000495f0000f4
:10267c004f3a00007370000064320000202000000c
:10268c002020000020200000202000000049000035
:10269c005f4f00003a7300007064000033200000ac
:1026ac00202000002020000020200000200000003e
:1026bc00495f00004f3a0000537000006434000082
:1026cc0020200000202000002020000020200000fe
:1026dc00004900005f4f00003a5300007064000096
:1026ec0035200000202000002020000020200000c9
:1026fc0020000000495f00004f3a000053700000ba
:10270c006436000020200000202000002020000063
:10271c0020200000004900005f4f00003a530000e9
:10272c0070640000372000002020000020200000f2
:10273c002020000020000000495f00004f3a0000fc
:10274c00537000006438000020200000202000009e
:10275c002020000020200000004900005f4f0000f6
:10276c003a53000070640000392000002020000063
:10277c00202000002020000020000000495f000005
:10278c004f3a00005370000064310000302000000c
:10279c002020000020200000202000000049000024
:1027ac005f4f00003a5300007064000031310000ac
:1027bc00202000002020000020200000200000002d
:1027cc00495f00004f3a0000537000006431000074
:1027dc0032200000202000002020000020200000db
:1027ec0000500000415200003a4500006e630000aa
:1027fc006f64000065720000507500006c7300007f
:10280c006500000050410000523a000020540000c6
:10281c004d2000004d7000006d20000020200000b5
:10282c002020000000500000415200003a4d0000f2
:10283c006f7400006f72000020520000706d000079
:10284c00202000002000000050410000523a0000ff
:10285c004465000063330000302000004c6500002c
:10286c006e670000746800000050000041520000c8
:10287c003a4400006563000034350000204c000031
:10288c00656e000067740000680000005041000095
:10289c00523a00004465000063360000302000000e
:1028ac004c6500006e67000074680000005000006a
:1028bc00415200003a4400006563000039300000ca
:1028cc00204c0000656e000067740000680000007a
:1028dc0050410000523a0000446500006331000092
:1028ec00303500004c6500006e6700007468000015
:1028fc0000500000415200003a44000065630000a3
:10290c0031320000304c0000656e0000677400002e
:10291c006800000050410000523a0000446500007d
:10292c0063310000353000004c6500006e6700001c
:10293c007468000000500000415200003a4400004e
:10294c006563000031380000304c0000656e0000fb
:10295c00677400006800000050410000523a00000b
:10296c004465000063320000313000004c6500000b
:10297c006e670000746800000050000041520000b7
:10298c003a44000065630000333000002050000022
:10299c00756c0000736500002000000050410000c1
:1029ac00523a0000446500006334000035200000fa
:1029bc00507500006c730000652000000050000092
:1029cc00415200003a4400006563000036300000bc
:1029dc0020500000756c00007365000020000000a2
:1029ec0050410000523a0000446500006339000079
:1029fc0030200000507500006c7300006520000052
:102a0c0000500000415200003a4400006563000091
:102a1c003130000035200000507500006c73000050
:102a2c006500000050410000523a0000446500006f
:102a3c00633100003230000020500000756c000043
:102a4c007365000000500000415200003a44000041
:102a5c006563000031350000302000005075000027
:102a6c006c7300006500000050410000523a0000f9
:102a7c004465000063310000383000002050000035
:102a8c00756c00007365000000500000415200009e
:102a9c003a44000065630000323100003020000031
:102aac00507500006c730000650000005041000080
:102abc00523a00004d6900006e33000030200000d7
:102acc0020500000756c0000736500000050000081
:102adc00415200003a4d0000696e00003435000090
:102aec0020200000507500006c7300006500000091
:102afc0050410000523a00004d6900006e36000053
:102b0c003020000020500000756c00007365000040
:102b1c0000500000415200003a4d0000696e000068
:102b2c003930000020200000507500006c7300004c
:102b3c006500000050410000523a00004d69000051
:102b4c006e3100003035000020500000756c000024
:102b5c007365000000500000415200003a4d000027
:102b6c00696e00003132000030200000507500000a
:102b7c006c7300006500000050410000523a0000e8
:102b8c004d6900006e31000035300000205000000f
:102b9c00756c00007365000000500000415200008d
:102bac003a4d0000696e0000313800003020000002
:102bbc00507500006c73000065000000504100006f
:102bcc00523a00004d6900006e32000031300000b6
:102bdc0020500000756c0000736500000050000070
:102bec00415200003a4d0000706d0000205600006c
:102bfc006172000069610000626c000065000000f9
:102c0c0050410000523a00004d6d0000506500002c
:102c1c0072500000756c00007365000020200000ed
:102c2c00005700005f4600004c5200003a2800009c
:102c3c0031290000686d00005f6800006d5f0000c6
:102c4c0046000000575f0000464c0000523a00005e
:102c5c0028320000296800006d5f0000686d0000dc
:102c6c005f460000005700005f4600004c52000019
:102c7c003a28000033290000686d00005f680000ee
:102c8c006d5f000046000000575f0000464c0000de
:102c9c00523a000028340000296800006d5f0000e3
:102cac00686d00005f460000005700005f460000a2
:102cbc004c5200003a540000696d00006530000071
:102ccc00393100003020000020000000575f000068
:102cdc00464c0000523a0000546900006d6500003b
:102cec00313000003131000020200000005700007e
:102cfc005f4600004c5200003a540000696d000021
:102d0c00653100003131000032200000200000004d
:102d1c00575f0000464c0000523a00005469000016
:102d2c006d650000313200003133000020200000be
:102d3c00005700005f4600004c5200003a5400005f
:102d4c00696d000065310000333100003420000053
:102d5c0020000000575f0000464c0000523a000073
:102d6c00546900006d6500003134000031350000fd
:102d7c0020200000005700005f4600004c5200006d
:102d8c003a540000696d00006531000035310000d7
:102d9c003620000020000000575f0000464c000069
:102dac00523a0000546900006d6500003136000095
:102dbc003137000020200000005700005f46000063
:102dcc004c5200003a540000696d0000653100005f
:102ddc00373100003820000020000000575f000051
:102dec00464c0000523a0000546900006d6500002a
:102dfc00313800003139000020200000005700005d
:102e0c005f4600004c5200003a540000696d00000f
:102e1c006531000039320000302000002000000035
:102e2c00575f0000464c0000523a00005469000005
:102e3c006d650000323000003231000020200000af
:102e4c00005700005f4600004c5200003a5400004e
:102e5c00696d000065320000313000003520000043
:102e6c0020000000575f0000464c0000523a000062
:102e7c00546900006d6500003030000030320000f5
:102e8c0020200000005700005f4600004c5200005c
:102e9c003a540000696d00006530000030300000cd
:102eac003320000020000000575f0000464c00005b
:102ebc00523a0000546900006d650000303000008b
:102ecc003034000020200000005700005f46000056
:102edc004c5200003a540000696d0000653000004f
:102eec00303000003520000020000000575f00004b
:102efc00464c0000523a0000546900006d65000019
:102f0c003030000030360000202000000057000058
:102f1c005f4600004c5200003a540000696d0000fe
:102f2c006530000030300000372000002000000029
:102f3c00575f0000464c0000523a000054690000f4
:102f4c006d6500003030000030380000202000009b
:102f5c00005700005f4600004c5200003a5400003d
:102f6c00696d000065300000303000003920000031
:102f7c0020000000575f0000464c0000523a000051
:102f8c00546900006d6500003030000031300000e5
:102f9c0020200000005700005f4600004c5200004b
:102fac003a540000696d00006530000030310000bb
:102fbc003120000020000000575f0000464c00004c
:102fcc00523a0000546900006d650000303000007a
:102fdc003132000020200000005700005f46000046
:102fec004c5200003a540000696d0000653000003e
:102ffc00303100003320000020000000575f00003b
:10300c00464c0000523a0000546900006d65000007
:10301c003030000031340000202000000057000048
:10302c005f4600004c5200003a500000726b0000ea
:10303c00205300005f540000696d00006500000023
:10304c00575f0000464c0000523a000050720000de
:10305c006b200000455f0000546900006d650000a6
:10306c00004e0000634e00006f3100003a45000036
:10307c004d470000202000002020000020200000f0
:10308c00200000004e6300004e6f0000313a00003b
:10309c00505200004b200000202000002020000097
:1030ac0020200000004e0000634e00006f31000035
:1030bc003a41000054200000202000002020000095
:1030cc0020200000200000004e6300004e6f000026
:1030dc00313a000055420000202000002020000062
:1030ec002020000020200000004e0000634e000055
:1030fc006f3100003a440000422000002020000004
:10310c002020000020200000200000004e63000062
:10311c004e6f0000313a00004f4c0000532000006d
:10312c00202000002020000020200000004e000085
:10313c00634e00006f3100003a470000532000003e
:10314c002020000020200000202000002000000093
:10315c004e6300004e6f0000313a000048440000fe
:10316c005320000020200000202000002020000020
:10317c00004e0000634e00006f3100003a53000017
:10318c0055530000202000002020000020200000cb
:10319c00200000004e6300004e6f0000313a00002a
:1031ac005344000053200000202000002020000089
:1031bc0020200000004e0000634e00006f31000024
:1031cc003a5300004654000020200000202000004c
:1031dc0020200000200000004e6300004e6f000015
:1031ec00313a00004f5600004c2000002020000017
:1031fc002020000020200000004e0000634e000044
:10320c006f3100003a5500004c53000020200000a4
:10321c002020000020200000200000004e63000051
:10322c004e6f0000313a0000444c00005320000067
:10323c00202000002020000020200000004e000074
:10324c00634e00006f3100003a4c00005520000026
:10325c002020000020200000202000002000000082
:10326c004e6300004e6f0000313a00004c440000e9
:10327c002020000020200000202000002020000042
:10328c00004e0000634e00006f3100003a52000007
:10329c0047200000202000002020000020200000fb
:1032ac00200000004e6300004e6f0000313a000019
:1032bc00424100005420000020200000202000008b
:1032cc0020200000004e0000634e00006f31000013
:1032dc003a50000041530000202000002020000044
:1032ec0020200000200000004e6300004e6f000004
:1032fc00313a000046490000522000002020000016
:10330c002020000020200000004e0000634e000032
:10331c006f3100003a57000041540000202000009b
:10332c002020000020200000200000004e63000040
:10333c004e6f0000313a0000465500004c20000052
:10334c00202000002020000020200000004e000063
:10335c00634e00006f3100003a4d00004d2000001c
:10336c002020000020200000202000002000000071
:10337c004e6300004e6f0000313a000054480000cc
:10338c002020000020200000202000002020000031
:10339c00004e0000634e00006f3100003a46000002
:1033ac0052310000202000002020000020200000ce
:1033bc00200000004e6300004e6f0000313a000008
:1033cc004652000032200000202000002020000087
:1033dc0020200000004e0000634e00006f31000002
:1033ec003a4200004d520000202000002020000036
:1033fc0020200000200000004e6300004e6f0000f3
:10340c00313a0000424d00004c200000202000000a
:10341c002020000020200000004e0000634e000021
:10342c006f3100003a53000055310000202000009d
:10343c002020000020200000200000004e6300002f
:10344c004e6f0000313a0000534400003120000060
:10345c00202000002020000020200000004e000052
:10346c00634e00006f3100003a4400005a20000007
:10347c002020000020200000202000002000000060
:10348c004e6300004e6f0000313a0000494e0000c0
:10349c0056200000202000002020000020200000ea
:1034ac00004e0000634e00006f3200003a580000de
:1034bc0030200000202000002020000020200000f0
:1034cc00200000004e6300004e6f0000323a0000f6
:1034dc005831000020200000202000002020000097
:1034ec0020200000004e0000634e00006f320000f0
:1034fc003a5800003220000020200000202000005c
:10350c0020200000200000004e6300004e6f0000e1
:10351c00323a000058330000202000002020000028
:10352c002020000020200000004e0000634e000010
:10353c006f3200003a5800003420000020200000b8
:10354c002020000020200000200000004e6300001e
:10355c004e6f0000323a0000583500002020000069
:10356c00202000002020000020200000004e000041
:10357c00634e00006f3200003a5800003620000005
:10358c00202000002020000020200000200000004f
:10359c004e6300004e6f0000323a0000484f0000ae
:1035ac004c5300002f580000372000002020000052
:1035bc00004e0000634e00006f3200003a570000ce
:1035cc002f46000053300000202000002020000077
:1035dc00200000004e6300004e6f0000323a0000e5
:1035ec00532e0000532f00004653000031200000e2
:1035fc0020200000004e0000634e00006f320000df
:10360c003a46000053320000202000002020000029
:10361c0020200000200000004e6300004e6f0000d0
:10362c00323a0000465300003320000020200000f6
:10363c002020000020200000004e0000634e0000ff
:10364c006f3200003a460000533400002020000086
:10365c002020000020200000200000004e6300000d
:10366c004e6f0000323a000044450000522000002a
:10367c00202000002020000020200000004e000030
:10368c00634e00006f3200003a46000049440000cf
:10369c00202000002020000020200000200000003e
:1036ac004e6300004e6f0000323a0000554e000091
:1036bc0044200000202000002020000020200000da
:1036cc00004e0000634e00006f3200003a440000d0
:1036dc004f4f0000525f0000484f00004c44000068
:1036ec00200000004e6300004e6f0000323a0000d4
:1036fc004d6100006e4900006e7300004d6f0000bc
:10370c0064650000004e0000634e00006f32000044
:10371c003a5600004952000054550000414c00003c
:10372c005f580000320000004e6300004e6f000036
:10373c00323a000056490000525400005541000036
:10374c004c5f000058330000004e0000634e000038
:10375c006f3200003a5600004952000054550000e8
:10376c00414c00005f580000340000004e63000024
:10377c004e6f0000323a00005649000052540000cf
:10378c00554100004c5f000058350000004e000011
:10379c00634e00006f3200003a56000049520000a0
:1037ac0054550000414c00005f58000036000000ea
:1037bc004e6300004e6f0000323a00005649000084
:1037cc0052540000554100004c5f00005837000077
:1037dc00004e0000634e00006f3200003a6e000095
:1037ec00632000002020000020200000202000008a
:1037fc00200000004e6300004e6f0000323a0000c3
:10380c006e6300002020000020200000202000001b
:10381c0020200000004e0000634e00006f320000bc
:10382c003a6e0000632000002020000020200000e1
:10383c0020200000200000004e6300004e6f0000ae
:10384c00323a00006e6300002020000020200000af
:10385c002020000020200000004e0000634e0000dd
:10386c006f3200003a6e0000632000002020000040
:10387c002020000020200000200000004e630000eb
:10388c004e6f0000323a00006e63000020200000f2
:10389c00202000002020000020200000004e00000e
:1038ac00634e00006f3200003a6e0000632000008f
:1038bc00202000002020000020200000200000001c
:1038cc004e6300004e6f0000323a00006e63000041
:1038dc0020200000202000002020000020200000dc
:1038ec00004e0000634e00006f3300003a460000ab
:1038fc00414e00002020000020200000202000006d
:10390c00200000004e6300004e6f0000333a0000b0
:10391c004c49000054200000202000002020000012
:10392c0020200000004e0000634e00006f330000aa
:10393c003a420000555a00002020000020200000d0
:10394c0020200000200000004e6300004e6f00009d
:10395c00333a0000424500004c20000020200000bb
:10396c002020000020200000004e0000634e0000cc
:10397c006f3300003a520000454c0000202000003c
:10398c002020000020200000200000004e630000da
:10399c004e6f0000333a00004552000052200000e8
:1039ac00202000002020000020200000004e0000fd
:1039bc00634e00006f3300003a4800004f50000087
:1039cc00202000002020000020200000200000000b
:1039dc004e6300004e6f0000333a00004843000075
:1039ec006c2000002020000020200000202000007f
:1039fc00004e0000634e00006f3300003a4f000091
:103a0c00502000002020000020200000202000007a
:103a1c00200000004e6300004e6f0000333a00009f
:103a2c00434c00002020000020200000202000003b
:103a3c0020200000004e0000634e00006f33000099
:103a4c003a5300004f5000002020000020200000be
:103a5c0020200000200000004e6300004e6f00008c
:103a6c00333a0000534300004c200000202000009b
:103a7c002020000020200000004e0000634e0000bb
:103a8c006f3300003a4200004b320000202000004f
:103a9c002020000020200000200000004e630000c9
:103aac004e6f0000333a0000445f000053200000ca
:103abc00202000002020000020200000004e0000ec
:103acc00634e00006f3300003a550000434d000078
:103adc0020200000202000002020000020000000fa
:103aec004e6300004e6f0000333a0000424b000062
:103afc0031200000202000002020000020200000a9
:103b0c00004e0000634e00006f3300003a55000079
:103b1c005020000020200000202000002020000069
:103b2c00200000004e6300004e6f0000333a00008e
:103b3c00444e000020200000202000002020000027
:103b4c0020200000004e0000634e00006f33000088
:103b5c003a500000312000002020000020200000fe
:103b6c0020200000200000004e6300004e6f00007b
:103b7c00333a0000503200002020000020200000ca
:103b8c002020000020200000004e0000634e0000aa
:103b9c006f3300003a50000033200000202000005a
:103bac002020000020200000200000004e630000b8
:103bbc004e6f0000333a000050340000202000000b
:103bcc00202000002020000020200000004e0000db
:103bdc00634e00006f3300003a4400004143000084
:103bec0020200000202000002020000020000000e9
:103bfc004e6300004e6f0000333a0000534c00003f
:103c0c004f5700005f4400004f4f0000522000004f
:103c1c00004e0000634e00006f3300003a56000067
:103c2c004952000054550000414c00005f590000ff
:103c3c00310000004e6300004e6f0000333a00006c
:103c4c005649000052540000554100004c5f0000e2
:103c5c0059320000004e0000634e00006f3300002c
:103c6c003a5600004952000054550000414c0000e7
:103c7c005f590000330000004e6300004e6f0000df
:103c8c00333a0000564900005254000055410000e0
:103c9c004c5f000059340000004e0000634e0000e1
:103cac006f3300003a560000495200005455000092
:103cbc00414c00005f590000350000004e630000cd
:103ccc004e6f0000333a0000564900005254000079
:103cdc00554100004c5f000059360000004e0000ba
:103cec00634e00006f3300003a560000495200004a
:103cfc0054550000414c00005f5900003700000093
:103d0c004e6300004e6f0000333a00006e630000fb
:103d1c002020000020200000202000002020000097
:103d2c00004900004e500000313a0000454d0000a3
:103d3c004720000020200000202000002020000050
:103d4c0020000000494e0000503100003a500000a5
:103d5c00524b0000202000002020000020200000fa
:103d6c0020200000004900004e500000313a0000b5
:103d7c0041540000202000002020000020200000e2
:103d8c002020000020000000494e000050310000af
:103d9c003a55000050200000202000002020000098
:103dac002020000020200000004900004e500000a0
:103dbc00313a0000444e000020200000202000007a
:103dcc00202000002020000020000000494e0000b0
:103ddc00503100003a4f00004c53000020200000ee
:103dec0020200000202000002020000000490000be
:103dfc004e500000313a00004753000020200000d4
:103e0c0020200000202000002020000020000000c6
:103e1c00494e0000503100003a4800004453000065
:103e2c002020000020200000202000002020000086
:103e3c00004900004e500000313a0000535500007c
:103e4c005320000020200000202000002020000033
:103e5c0020000000494e0000503100003a53000091
:103e6c0044530000202000002020000020200000ef
:103e7c0020200000004900004e500000313a0000a4
:103e8c005346000054200000202000002020000099
:103e9c002020000020000000494e0000503100009e
:103eac003a4f0000564c000020200000202000005b
:103ebc002020000020200000004900004e5000008f
:103ecc00313a0000554c0000532000002020000027
:103edc00202000002020000020000000494e00009f
:103eec00503100003a4400004c53000020200000e8
:103efc0020200000202000002020000000490000ad
:103f0c004e500000313a00004c55000020200000bb
:103f1c0020200000202000002020000020000000b5
:103f2c00494e0000503100003a4c00004420000083
:103f3c002020000020200000202000002020000075
:103f4c00004900004e500000313a0000524700007a
:103f5c002020000020200000202000002020000055
:103f6c0020000000494e0000503100003a42000091
:103f7c0041540000202000002020000020200000e0
:103f8c0020200000004900004e500000313a000093
:103f9c005041000053200000202000002020000091
:103fac002020000020000000494e0000503100008d
:103fbc003a4600004952000020200000202000005a
:103fcc002020000020200000004900004e5000007e
:103fdc00313a00005741000054200000202000001e
:103fec00202000002020000020000000494e00008e
:103ffc00503100003a460000554c000020200000d3
:10400c00202000002020000020200000004900009b
:10401c004e500000313a00004d4d000020200000b1
:10402c0020200000202000002020000020000000a4
:10403c00494e0000503100003a5400004820000066
:10404c002020000020200000202000002020000064
:10405c00004900004e500000313a0000465200006a
:10406c003120000020200000202000002020000033
:10407c0020000000494e0000503100003a4600007c
:10408c0052320000202000002020000020200000e0
:10409c0020200000004900004e500000313a000082
:1040ac00424d000052200000202000002020000083
:1040bc002020000020000000494e0000503100007c
:1040cc003a4200004d4c000020200000202000004f
:1040dc002020000020200000004900004e5000006d
:1040ec00313a000053550000312000002020000020
:1040fc00202000002020000020000000494e00007d
:10410c00503100003a5300004431000020200000e0
:10411c00202000002020000020200000004900008a
:10412c004e500000313a0000445a0000202000009c
:10413c002020000020200000202000002000000093
:10414c00494e0000503100003a4900004e56000024
:10415c002020000020200000202000002020000053
:10416c00004900004e500000323a00005830000068
:10417c002020000020200000202000002020000033
:10418c0020000000494e0000503200003a58000058
:10419c003120000020200000202000002020000002
:1041ac0020200000004900004e500000323a000070
:1041bc0058320000202000002020000020200000a9
:1041cc002020000020000000494e0000503200006a
:1041dc003a5800003320000020200000202000006e
:1041ec002020000020200000004900004e5000005c
:1041fc00323a00005834000020200000202000003b
:10420c00202000002020000020000000494e00006b
:10421c00503200003a5800003520000020200000e9
:10422c002020000020200000202000000049000079
:10423c004e500000323a000058360000202000009a
:10424c002020000020200000202000002000000082
:10425c00494e0000503200003a4800004f4c00001c
:10426c00532f0000583700002020000020200000b1
:10427c00004900004e500000323a0000572f000059
:10428c0046530000302000002020000020200000b9
:10429c0020000000494e0000503200003a5300004c
:1042ac002e5300002f460000533100002020000048
:1042bc0020200000004900004e500000323a00005f
:1042cc004653000032200000202000002020000077
:1042dc002020000020000000494e00005032000059
:1042ec003a4600005333000020200000202000003c
:1042fc002020000020200000004900004e5000004b
:10430c00323a000046530000342000002020000008
:10431c00202000002020000020000000494e00005a
:10432c00503200003a4400004552000020200000aa
:10433c002020000020200000202000000049000068
:10434c004e500000323a0000464900004420000064
:10435c002020000020200000202000002000000071
:10436c00494e0000503200003a5500004e44000007
:10437c002020000020200000202000002020000031
:10438c00004900004e500000323a0000444f00003b
:10439c004f5200005f4800004f4c000044200000ca
:1043ac0020000000494e0000503200003a4d000041
:1043bc00616e0000204900006e7300004d6f00001c
:1043cc0064650000004900004e500000323a0000c5
:1043dc005649000052540000554100004c5f00004b
:1043ec005832000020000000494e000050320000fe
:1043fc003a5600004952000054550000414c000050
:10440c005f58000033200000004900004e500000af
:10441c00323a000056490000525400005541000049
:10442c004c5f00005834000020000000494e000092
:10443c00503200003a56000049520000545500001a
:10444c00414c00005f58000035200000004900007e
:10445c004e500000323a0000564900005254000001
:10446c00554100004c5f0000583600002000000051
:10447c00494e0000503200003a56000049520000ec
:10448c0054550000414c00005f58000037200000dc
:10449c00004900004e500000323a00006e630000ec
:1044ac002020000020200000202000002020000000
:1044bc0020000000494e0000503200003a6e00000f
:1044cc00632000002020000020200000202000009d
:1044dc0020200000004900004e500000323a00003d
:1044ec006e6300002020000020200000202000002f
:1044fc002020000020000000494e00005032000037
:10450c003a6e0000632000002020000020200000f4
:10451c002020000020200000004900004e50000028
:10452c00323a00006e6300002020000020200000c2
:10453c00202000002020000020000000494e000038
:10454c00503200003a6e0000632000002020000072
:10455c002020000020200000202000000049000046
:10456c004e500000323a00006e6300002020000024
:10457c00202000002020000020200000200000004f
:10458c00494e0000503200003a6e000063200000db
:10459c00202000002020000020200000202000000f
:1045ac00004f000055540000503a000046410000f6
:1045bc004e200000202000002020000020200000c1
:1045cc00200000004f550000545000003a4c0000f1
:1045dc004954000020200000202000002020000072
:1045ec0020200000004f000055540000503a0000fd
:1045fc00425500005a20000020200000202000001e
:10460c0020200000200000004f55000054500000f6
:10461c003a420000454c0000202000002020000001
:10462c002020000020200000004f00005554000006
:10463c00503a0000524500004c20000020200000a1
:10464c002020000020200000200000004f5500001a
:10465c00545000003a450000525200002020000047
:10466c00202000002020000020200000004f00002f
:10467c0055540000503a0000484f000050200000f4
:10468c00202000002020000020200000200000003e
:10469c004f550000545000003a480000434c0000b5
:1046ac0020200000202000002020000020200000fe
:1046bc00004f000055540000503a00004f500000cd
:1046cc0020200000202000002020000020200000de
:1046dc00200000004f550000545000003a430000e9
:1046ec004c20000020200000202000002020000092
:1046fc0020200000004f000055540000503a0000ec
:10470c00534f00005020000020200000202000000b
:10471c0020200000200000004f55000054500000e5
:10472c003a530000434c00002020000020200000e1
:10473c002020000020200000004f000055540000f5
:10474c00503a0000424b00003220000020200000b4
:10475c002020000020200000200000004f55000009
:10476c00545000003a4400005f5300002020000029
:10477c00202000002020000020200000004f00001e
:10478c0055540000503a0000554300004d200000e5
:10479c00202000002020000020200000200000002d
:1047ac004f550000545000003a4200004b310000bd
:1047bc0020200000202000002020000020200000ed
:1047cc00004f000055540000503a000055500000b6
:1047dc0020200000202000002020000020200000cd
:1047ec00200000004f550000545000003a440000d7
:1047fc004e2000002020000020200000202000007f
:10480c0020200000004f000055540000503a0000da
:10481c00503100002020000020200000202000004b
:10482c0020200000200000004f55000054500000d4
:10483c003a50000032200000202000002020000010
:10484c002020000020200000004f000055540000e4
:10485c00503a0000503300002020000020200000bf
:10486c002020000020200000200000004f550000f8
:10487c00545000003a50000034200000202000006a
:10488c00202000002020000020200000004f00000d
:10489c0055540000503a00004441000043200000f1
:1048ac00202000002020000020200000200000001c
:1048bc004f550000545000003a5300004c4f00007c
:1048cc00575f0000444f00004f52000020200000b2
:1048dc00004f000055540000503a000056490000ab
:1048ec0052540000554100004c5f0000593100004b
:1048fc00200000004f550000545000003a560000b4
:10490c004952000054550000414c00005f59000012
:10491c0032200000004f000055540000503a0000b7
:10492c005649000052540000554100004c5f0000f5
:10493c0059330000200000004f5500005450000077
:10494c003a5600004952000054550000414c0000fa
:10495c005f59000034200000004f00005554000047
:10496c00503a0000564900005254000055410000d6
:10497c004c5f000059350000200000004f5500002e
:10498c00545000003a5600004952000054550000a3
:10499c00414c00005f59000036200000004f000021
:1049ac0055540000503a0000564900005254000083
:1049bc00554100004c5f00005937000020000000fa
:1049cc004f550000545000003a4e00006f74000028
:1049dc0020550000736500002020000020200000fe
:1049ec0000450000523a00004e4f000020450000e8
:1049fc00525200004f520000452800003031000098
:104a0c0029000000455200003a4e00004f200000e3
:104a1c0045520000524f0000524500002830000063
:104a2c003229000000450000523a00004e4f0000b1
:104a3c0020450000525200004f5200004528000053
:104a4c003033000029000000455200003a4e0000af
:104a5c004f20000045520000524f0000524500000c
:104a6c00283000003429000000450000523a0000b4
:104a7c004e4f000020450000525200004f520000e3
:104a8c004528000030350000290000004552000088
:104a9c003a4e00004f20000045520000524f0000db
:104aac005245000028300000362900000045000067
:104abc00523a00004e4f00002045000052520000b8
:104acc004f5200004528000030370000290000003c
:104adc00455200003a4e00004f20000045520000a5
:104aec00524f0000524500002830000038290000c9
:104afc0000450000523a00004e4f000020450000d7
:104b0c00525200004f52000045280000303900007e
:104b1c0029000000455200003a4e00004f200000d2
:104b2c0045520000524f0000524500002831000051
:104b3c003029000000450000523a00004e4f0000a2
:104b4c0020450000525200004f5200004528000042
:104b5c003131000029000000455200003a4e00009f
:104b6c004f20000045520000524f000052450000fb
:104b7c00283100003229000000450000523a0000a4
:104b8c004e4f000020450000525200004f520000d2
:104b9c004528000031330000290000004552000078
:104bac003a4e00004f20000045520000524f0000ca
:104bbc005245000028310000342900000045000057
:104bcc00523a00004e4f00002045000052520000a7
:104bdc004f5200004528000031350000290000002c
:104bec00455200003a4e00004f2000004552000094
:104bfc00524f0000524500002831000036290000b9
:104c0c0000450000523a00004e4f000020450000c5
:104c1c00525200004f52000045280000313700006e
:104c2c0029000000455200003a4e00004f200000c1
:104c3c0045520000524f0000524500002831000040
:104c4c003829000000450000523a00004e4f000089
:104c5c0020450000525200004f5200004528000031
:104c6c003139000029000000455200003a4e000086
:104c7c004f20000045520000524f000052450000ea
:104c8c00283200003029000000450000523a000094
:104c9c004e4f000020450000525200004f520000c1
:104cac004528000032310000290000004552000068
:104cbc003a4e00004f20000045520000524f0000b9
:104ccc005245000028320000322900000045000047
:104cdc00523a00004e4f0000204500005252000096
:104cec004f5200004528000032330000290000001c
:104cfc00455200003a4e00004f2000004552000083
:104d0c00524f0000524500002832000034290000a8
:104d1c0000450000523a00004e4f000020450000b4
:104d2c00525200004f52000045280000323500005e
:104d3c0029000000455200003a4e00004f200000b0
:104d4c0045520000524f000052450000283200002e
:104d5c003629000000450000523a00004e4f00007a
:104d6c0020450000525200004f5200004528000020
:104d7c003237000029000000455200003a4e000076
:104d8c004f20000045520000524f000052450000d9
:104d9c00283200003829000000450000523a00007b
:104dac004e4f000020450000525200004f520000b0
:104dbc00452800003239000029000000455200004f
:104dcc003a4e00004f20000045520000524f0000a8
:104ddc005245000028330000302900000045000037
:104dec00523a00004e4f0000204500005252000085
:104dfc004f5200004528000033310000290000000c
:104e0c00455200003a4e00004f2000004552000071
:104e1c00524f000052450000283300003229000098
:104e2c00004500002f4c00003a4500006e63000066
:104e3c006f64000065720000507500006c73000018
:104e4c0065000000452f00004c3a00002054000083
:104e5c004d2000004d7000006d200000202000004f
:104e6c0020200000004500002f4c00003a4d0000af
:104e7c006f7400006f72000020520000706d000013
:104e8c002020000020000000452f00004c3a0000bc
:104e9c004d6100006e530000706400002020000083
:104eac00506f000072740000004500002f4c000091
:104ebc003a4200006174000053700000642000004e
:104ecc00205000006f72000074000000452f00009d
:104edc004c3a00004465000063530000706400000d
:104eec0020200000506f000072740000004500008c
:104efc002f4c00003a460000484d00005370000053
:104f0c0064200000205000006f720000740000004c
:104f1c00452f00004c3a00004c6f00007753000006
:104f2c007064000020200000506f000072740000bc
:104f3c00004500002f4c00003a4d00006964000051
:104f4c005370000064200000205000006f720000bd
:104f5c0074000000452f00004c3a00004869000026
:104f6c00676800005370000064200000506f000060
:104f7c0072740000004500002f4c00003a4c0000f9
:104f8c005f53000070640000204400006563000063
:104f9c004c6500006e000000452f00004c3a0000ec
:104fac004d5f000053700000642000004465000059
:104fbc00634c0000656e0000004500002f4c0000a3
:104fcc003a4800005f530000706400002044000069
:104fdc00656300004c6500006e000000452f00006a
:104fec004c3a000042610000736500005f4c000009
:104ffc00656e00006774000068200000004500002a
:10500c002f4c00003a420000617300006520000044
:10501c00445f0000546900006d6500002000000032
:10502c00452f00004c3a00004261000073650000ff
:10503c00205300005f540000696d000065200000e3
:10504c00004500002f4c00003a530000755300003f
:10505c006432000020530000706400002020000027
:10506c0020000000452f00004c3a00005830000092
:10507c005831000020200000537000006420000014
:10508c0020200000004500002f4c00003a4c00008e
:10509c00754c0000642d0000537400006f7000000c
:1050ac004d7000006d000000452f00004c3a0000d0
:1050bc004e6f000074200000557300006520000046
:1050cc002020000020200000004500002f4c000094
:1050dc003a410000757400006f4c0000616e0000d6
:1050ec00646900006e67000020000000452f00007e
:1050fc004c3a0000547500006e6900006e670000a9
:10510c00204d00006f640000652000000045000089
:10511c002f4c00003a460000686d0000204d000046
:10512c006f640000652000002020000020000000bb
:10513c00452f00004c3a00004e6f00007420000018
:10514c005573000065200000202000002020000086
:10515c00004500002f4c00003a4e00006f74000018
:10516c002055000073650000202000002020000066
:10517c0020000000452f00004c3a00004e6f00004c
:10518c0074200000557300006520000020200000f2
:10519c0020200000004500002f4c00003a4c00007d
:1051ac005f5300007064000020500000756c00001c
:1051bc007365000020000000452f00004c3a0000f1
:1051cc004d5f00005370000064200000507500001b
:1051dc006c73000065200000004500002f4c00009f
:1051ec003a4800005f53000070640000205000003b
:1051fc00756c00007365000020000000452f000056
:10520c004c3a000042610000736500005f500000e2
:10521c00756c000073650000202000000045000044
:10522c002f4c00003a4d0000706d0000205600001d
:10523c006172000069610000626c00006500000092
:10524c00452f00004c3a00004d6d000050650000e9
:10525c0072500000756c0000736500002020000087
:10526c000020000020460000484d000020530000a4
:10527c00756300006365000073730000202000005c
:10528c0020540000756e00006e6900006e6700000f
:10529c002053000075630000636500007373000009
:1052ac0020460000484d0000204e00006f200000fa
:1052bc00476f00006f640000436800006b20000023
:1052cc00446f00006f7200004a6d000070420000d5
:1052dc002050000068610000736500002020000071
:1052ec0020200000436100006c6c00002042000094
:1052fc0075740000204f00006e4e00006f6e0000b1
:10530c00537400006f700000204f00006e200000ee
:10531c004f70000020540000745400006d200000f9
:10532c004f6e0000205700006169000074540000ab
:10533c00745400006d2000004f6e0000436c0000a0
:10534c0020540000745400006d2000004f6e0000cb
:10535c002043000061720000447200003120000004
:10536c00205500007365000043610000724400008a
:10537c0072320000202000005573000065480000c8
:10538c006f6c0000447200003120000020550000ba
:10539c0073650000486f00006c440000723200001e
:1053ac002020000055730000655300005f5300007f
:1053bc006674000079200000205500007365000021
:1053cc004d670000742000004d6f00006e2000003f
:1053dc004f6e0000204500006e6300006f640000fb
:1053ec0065720000205500007365000052650000d6
:1053fc006c650000766500006c2000004f6e0000ac
:10540c00204c00006f70000065200000205400004c
:10541c0079700000652000004f6e000065430000ad
:10542c00616c00006c200000204f00006e4d0000ed
:10543c002f530000757300002020000053740000ef
:10544c006f700000427200006b2000004d6f000076
:10545c006e2000004f6e0000204b000069640000bd
:10546c00734300006c720000204f00006e2000009f
:10547c00465f000043610000724b0000657900003c
:10548c00204f00006e530000696e0000676c000036
:10549c006520000043610000722000004f70000086
:1054ac00204f000075740000204f00006e2000009b
:1054bc002053000066740000204300006f6d000054
:1054cc006d2000004f6e000020420000434400009d
:1054dc00204600006c6f00006f720000205200002c
:1054ec00756e00005f4f000070200000204f000020
:1054fc006e2000005265000073650000727600009b
:10550c00653500002020000020520000657300006b
:10551c006572000076650000342000002020000039
:10552c005265000073650000727600006533000060
:10553c0020200000204500006e630000436f000037
:10554c0070790000204f00006e0000004d610000db
:10555c006e750000616c0000204a00006f62000054
:10556c0020460000484d0000204700006f6f0000ef
:10557c0064200000202000004e6f000043680000f3
:10558c006b200000447200004a6d00007041000066
:10559c0020500000686100007365000020200000ae
:1055ac0020200000437500007220000057610000ad
:1055bc0072640000204f00006e4e00006f6e000001
:1055cc00537400006f700000204f000066660000ee
:1055dc004f70000020540000745400006d20000037
:1055ec004f660000665700006169000074540000ab
:1055fc00745400006d4f000066660000436c0000a0
:10560c0020540000745400006d2000004f66000010
:10561c00664300005f44000072310000204e000021
:10562c005f55000073650000435f0000447200008a
:10563c00322000004e5f00005573000065480000ea
:10564c005f44000072310000204e00005f550000e6
:10565c0073650000485f00004472000032200000b7
:10566c004e5f000055730000655300005f5300004f
:10567c0066740000204e00005f550000736500004a
:10568c004d670000742000004d6f00006e2000007c
:10569c004f660000664500006e6300006f640000fa
:1056ac00204e00005f55000073650000526500003d
:1056bc006c650000766500006c2000004f660000f1
:1056cc00664f0000696c000020200000505f000055
:1056dc0054790000706500004f6e000065430000b7
:1056ec00616c00006c2000004f660000664d0000ed
:1056fc002f530000757300004e6f000053740000b0
:10570c006f700000427200006b2000004d6f0000b3
:10571c006e2000004f660000664b000069640000bc
:10572c00734300006c720000204f0000666600009e
:10573c00465f000043610000724b00006579000079
:10574c004f660000664d0000756c00007469000027
:10575c002043000061720000202000004f70000008
:10576c00204f000075740000204f0000666600009a
:10577c002053000066740000204300006f6d000091
:10578c006d4f000066660000446900007265000001
:10579c0063740000466c00006f6f000072520000d2
:1057ac00756e00005f4f0000702000004f66000017
:1057bc0066200000526500007365000072760000e0
:1057cc0065350000202000002052000065730000a9
:1057dc006572000076650000342000002020000077
:1057ec00526500007365000072760000653300009e
:1057fc0020200000204500006e630000436f000075
:10580c0070790000204f00006666000041750000b2
:10581c00746f000020520000656100006479000084
:10582c00202d00002d2d00002d2d00002d2d000011
:10583c002d2d00002d2d00002d2d00002d2d0000f4
:10584c002d2d00002d2d00002d500000312d0000bd
:10585c002d2d00002d2d00002d2d000050320000ac
:10586c002d2d00002d2d00002d2d00002d2d0000c4
:10587c002d50000032500000312d00002d2d000065
:10588c002d2d0000503300002d2d00002d2d00007b
:10589c002d2d00002d2d00002d500000332d00006b
:1058ac002d500000312d00002d2d00002d2d00005d
:1058bc0050330000503200002d2d00002d2d000023
:1058cc002d2d00002d5000003350000032500000f0
:1058dc00312d00002d2d0000503400002d2d000026
:1058ec002d2d00002d2d00004e6f000074200000a7
:1058fc0055730000652000002020000020440000ab
:10590c00656300002f530000706400005f4d0000c1
:10591c005f48000044650000632f000053700000d6
:10592c00645f000048200000204c00006f770000ee
:10593c005f53000070640000202000002020000055
:10594c004d690000645f000053700000642000008b
:10595c0020200000204e00006f7400002055000035
:10596c00736500002020000020200000594b00002f
:10597c005f4100004c6100006e640000696e000025
:10598c0067530000504500004544000033300000d0
:10599c00202000002020000053500000454500004e
:1059ac00443400003520000020200000205300006b
:1059bc005045000045440000363000002020000017
:1059cc0020200000535000004545000044390000e1
:1059dc003020000020200000205300005045000023
:1059ec00454400003130000035200000202000002c
:1059fc005350000045450000443100003230000097
:105a0c0020200000205300005045000045440000b9
:105a1c0031350000302000002020000053500000e1
:105a2c0045450000443100003830000020200000c3
:105a3c002053000050450000454400003231000066
:105a4c0030200000202000004c47000020200000e7
:105a5c00456c000065760000617400006f49000021
:105a6c002f4f0000204500006c650000766100009f
